:020000040800F2
:10000000A812002075020008552B00088D27000853
:10001000512B000841190008494E0008000000005B
:10002000000000000000000000000000DD3B0008B0
:10003000A1230008000000008B0200088D020008C8
:10004000AD4E00088F0200088F0200088F020008E2
:100050008F0200088F0200088F0200088F0200083C
:100060008F0200088F0200088F0200088F0200082C
:100070008F0200088F0200088F0200088F0200081C
:100080008F0200088F0200088F0200088F0200080C
:10009000C14D00088F0200088F0200088F0200087F
:1000A0008F0200088F0200088F0200088F020008EC
:1000B0008F020008814500088F0200088F020008A7
:1000C0008F0200088F0200088F0200088F020008CC
:1000D0008F020008A14900088F0200088F02000863
:1000E0008F0200088F020008334C000800F002F86D
:1000F00000F0B0F80AA090E8000C82448344AAF112
:100100000107DA4501D100F0A5F8AFF2090EBAE80F
:100110000F0013F0010F18BFFB1A43F0010318473B
:10012000D4550000F45500000A444FF0000C10F8BC
:10013000013B13F0070408BF10F8014B1D1108BF65
:1001400010F8015B641E05D010F8016B641E01F805
:10015000016BF9D113F0080F1EBF10F8014BAD1C55
:100160000C1B09D16D1E58BF01F801CBFAD505E073
:1001700014F8016B01F8016B6D1EF9D59142D6D3CD
:10018000704700000023002400250026103A28BFF5
:1001900078C1FBD8520728BF30C148BF0B607047F9
:1001A0006E2900F0F782702900F00B81662905F0B6
:1001B0009F80652905F09C80672905F09980612959
:1001C000AFF3008003681B0A28BF41F08001692952
:1001D00000F0A482642900F0A182752900F09E82BB
:1001E0006F2900F0D983782900F0D780E92900F041
:1001F0007383E42900F07083F52900F06D83EF2903
:1002000000F0D683F82900F0D6800368DB0928BF08
:1002100041F08001632900F06386732900F068864D
:10022000E32900F07386F32900F0788600207047F8
:100230001FB500F0C9FE04000020002105F042F8BF
:10024000401C60600020002105F026F8E0601FBD22
:1002500010B510BD00F08AFE1146FFF7E9FF04F06B
:1002600077FF00F063FF03B4FFF7F2FF03BC04F075
:10027000F8FE00000948804709480047FEE7FEE70E
:10028000FEE7FEE7FEE7FEE7FEE7FEE7FEE7FEE746
:1002900004480549054A064B7047000021450008FF
:1002A000ED000008A80C0020A8120020A80E0020D5
:1002B000A80E0020704700001CB50C46064B7B447E
:1002C00069460090204600F07EFA04460020694608
:1002D00000F08CFA20461CBD2B0500000FB4044929
:1002E00010B503AA029800F087FA10BC5DF814FB61
:1002F0001400002070B5044685690068C10601D568
:10030000302600E02026C00707D070BDD4E90121C7
:1003100030469047206A401C20626D1EF6D570BDA5
:1003200070B5044685690078C00707D170BDD4E96F
:10033000012120209047206A401C20626D1EF6D5C6
:1003400070BD0000F0B40D460188090502D5214CAE
:100350007C4402E01F4C7C440E34002100F1240652
:1003600008E002F00F071209E75D42EA03721B0979
:100370007754491C52EA0307F3D10278002312078D
:1003800004D5702D06D009B1022311342246F0BCE9
:1003900000F06AB901231034F8E770B504460D4641
:1003A0002146106800F02EF9024629462046BDE895
:1003B00070400023C6E7D21D22F00703D3E90023D3
:1003C000C0E70368126843F0200303600823C36199
:1003D0000023B7E7765200002DE9F05F8946044616
:1003E0004FF0000ADFF874B1FB44C0F820A02046AB
:1003F000E1688847002874D0252806D0D4E9012177
:100400009047206A401C2062F1E700265F462046A4
:10041000E16888472028054607DB312D05D2781989
:1004200010F8200C08B10643F1E7B00701D526F01B
:100430000406C4F81CA00027C4F818A02A2D09D06F
:10044000284604F007FE38B304EB8708303DC8F8AF
:10045000185019E059F8041B204604EB87029161FB
:10046000E1688847012F054618D1E069002820DAA5
:1004700026F020061DE0D8F8180000EB800005EB00
:1004800040003038C8F818002046E1688847054623
:1004900004F0E0FD0028EED1012F0AD02E2D08D166
:1004A0002046E16888477F1C0546022F46F020065B
:1004B000C4DBA069002803DA404246F00106A061CF
:1004C000F00701D026F010066C2D0BD0682D09D056
:1004D0004C2D39D06A2D35D0742D35D07A2D33D0AE
:1004E00016E038E0E1682F4620468847B8420546C6
:1004F00009D16C2F26D04FF48060E1680643204676
:100500008847054604E06C2F1AD04FF480700643EC
:100510000DB3A5F14100192802D8203546F4006634
:100520004A462946204626604E46FFF739FE80B1EE
:1005300001280BD0F61D26F0070000F1080956E748
:100540004020E4E78020D8E70020D6E706F1040940
:100550004DE7284652E7206ABDE8F09F06520000AA
:10056000032A40F2308010F0030C00F0158011F8DF
:10057000013BBCF1020F624498BF11F801CB00F8B7
:10058000013B38BF11F8013BA2F1040298BF00F80B
:1005900001CB38BF00F8013B11F0030300F01282D9
:1005A000083AC0F0088051F8043B083A51F804CBEF
:1005B000A0E80810F5E7121D5CBF51F8043B40F8B5
:1005C000043BAFF30080D20724BF11F8013B11F8C0
:1005D00001CB48BF11F8012B24BF00F8013B00F804
:1005E00001CB48BF00F8012B704770477047704738
:1005F000704709684A0501D540B27047C905FCD566
:1006000000B2704709684A0501D5C0B27047C905F4
:10061000FCD580B2704770B50C460546012A05D05E
:100620002878800600D5EA69002302E0012305E06E
:100630005B1C934202D2E05C0028F9D1A869E6185D
:10064000C01AA861286A184428622846FFF752FE9B
:1006500004E0D5E9012114F8010B9047B442F8D326
:100660002846FFF75DFE70BD2DE9F0470D4699461F
:100670009246044600F124080168880604D5E06922
:1006800021F01001216000E00120A84201DD471B9C
:1006900000E00027A1697A1902EB0900081AA0619D
:1006A0002078C00602D42046FFF724FE002608E08A
:1006B000D4E901211AF806009047206A401C761CF4
:1006C00020624E45F4DB2078C0060AD52046FFF7AD
:1006D00011FE06E0D4E9012130209047206A401C39
:1006E0002062381EA7F10107F4DC07E0D4E90121FC
:1006F00018F805009047206A401C2062281EA5F1CA
:100700000105F3DC2046FFF70BFE2078000602D53A
:100710000220BDE8F0870120FBE700002DE9F04151
:100720000646002410687529314616A510D0FFF73B
:1007300060FF002802DA404213A507E031688A070B
:1007400001D512A502E0490704D511A5012401E055
:10075000FFF758FF00210A2206F1240709E0B0FB49
:10076000F2FCB0FBF2F302FB1C0030307854184668
:10077000491C0028F3D123462A463046BDE8F04103
:10078000FFF772BF000000002D0000002B000000EA
:100790002000000011680268006A530501D5087046
:1007A0000AE0D30501D5088006E0130603D5C21779
:1007B000C1E9000200E008600120704701694A1C9D
:1007C00002610878704700B58FB0CDE90131002192
:1007D000059105497944CDE9031011466846FFF7B4
:1007E000FBFD0FB000BD0000E5FFFFFF0A6802F847
:1007F000010B0A6070470000074B70B50D467B4443
:10080000FFF7E1FF0446284600F08CFB10B14FF0E3
:10081000FF3070BD204670BD334900002DE9FF5FF9
:1008200015468A460446DFF8AC80F8440027D8E92C
:1008300000103E46CDE9001010E03AF816106A4666
:1008400002A800F073FB411C07D02178890603D56C
:10085000E269391891420DD80744761C2078800649
:1008600002D5E069B84205DDAE42E6DB3AF8160093
:100870000028E2D1A069C01BA0612046FFF73AFD25
:10088000D8E90010CDE90010002017E03AF8181060
:100890006A4602A800F04AFBB0F1FF3F81460BD048
:1008A00000250DF1080B05E0D4E901211BF8050036
:1008B00090476D1C4D45F7D308F10100B0428046CA
:1008C000E4DB206A384420622046FFF729FDBDE8BA
:1008D000FF9F0000D64D00002DE9F0418046D21D5B
:1008E00022F007020025D2E90002F52915A614D04E
:1008F000011E72F1000106DA0023D0EB030063EB66
:10090000020211A608E0D8F800108B0701D50FA647
:1009100002E0490701D50EA601251146002408F181
:10092000240704E000F080F830323A55641C50EAA5
:100930000102F7D12B46324621464046BDE8F04140
:10094000FFF792BE000000002D0000002B00000009
:100950002000000030B4002100F1240408E002F07F
:100960000705D208303542EA4372DB086554491C5A
:1009700052EA0305F3D10468002310A2250708D525
:1009800004F020040C4304D0C46901230CA2641EAB
:10099000C46130BCFFF768BE10B50446214610683C
:1009A000FFF730FE02462046BDE810400023D1E7A5
:1009B000D21D22F00701D1E90023CBE7000000009F
:1009C0003000000010B5203AC0F00B80B1E818509C
:1009D000203AA0E81850B1E81850A0E81850BFF429
:1009E000F5AF5FEA027C24BFB1E81850A0E81850C8
:1009F00044BF18C918C0BDE810405FEA827C24BF1C
:100A000051F8043B40F8043B08BF7047D20728BFA9
:100A100031F8023B48BF11F8012B28BF20F8023BF8
:100A200048BF00F8012B704730B5B0F10A024FEA19
:100A3000900E71F100034EEA817EB0EB0E0061EB87
:100A400091014FEA101E4EEA017E10EB0E0041EBC1
:100A500011114FEA102E4EEA016E10EB0E0041EB21
:100A600011214FEA104E4EEA014E10EB0E0041EB01
:100A70001141401841F100014FEAD00040EA4170B5
:100A80004FEAD10110EB80054FEA810444EA9074EB
:100A900044EB01046D1944EB0404521BA3414FF0D5
:100AA000000348BF0A3200D530BD401C41F10001AF
:100AB00030BD70472DE9FF4F0C461E464FF0FF3703
:100AC0008BB0D2E90001DDF860800A908A46C1F35C
:100AD0000A5505B93D46002108464FF00000BAF11D
:100AE000000F00F4400005DA00EB80004FF44001F5
:100AF00001EA50004FEA9059B9F1010F00DDB94603
:100B00000A9850EA4A000ED044F61050A5F2FF357C
:100B100045432F14B8F1000F1ED07542291E1EDD6B
:100B2000C9F100021CE0B8F1010F4FF0000001D044
:100B3000302103E0F24305E02154401CB042FBDBCE
:100B400030460022002121540B99C1F80880C1E9E8
:100B500000200FB0BDE8F08FBD1B6D1CDEE74A46DC
:100B600000DA694206A800F073FA06AB93E80700C2
:100B700003AB83E8070050460A9900F025FB8DE897
:100B80000700A0F500501F3800900398002D09DDE4
:100B900042F21F014A46084403A90390684600F048
:100BA00084FD08E0A0F500504A461F3803A90390D1
:100BB000684600F08EFD8DE807000004000C03D0AD
:100BC0004FF0FF30410800E01046B8F1000F03D0AD
:100BD0000022009215461EE0751E05D4FFF724FF83
:100BE000303262556D1EF9D5B3460122084302D05A
:100BF00000227F1C04E02078302801D100227F1ED3
:100C0000002A099786D01DE0112D07DAFFF70CFFA7
:100C1000303262556D1C50EA0102F5D1084302D012
:100C20000098C8B10EE00021681E05E0235C625CFC
:100C300063542254401E491C8142F7DBAB46A81B7B
:100C4000401E0990002004F80B000B98099AC0F888
:100C50000880C0E9002B7CE711264FF0000859E717
:100C60002DE9F04F88460446D21D22F0070191B0CD
:100C7000D1E90001CDE90A0104F0D8F902460B9848
:100C8000C00F01D02D2007E02068810701D52B205F
:100C900002E0202101EAC000032A099001D0072ABE
:100CA00005DB03464146204600F092F90BE120782F
:100CB000800601D5E06900E00620B8F1650F8146A5
:100CC00006D0B8F1660F18D0B8F1670F70D131E0D7
:100CD0000020B9F1110F009001DB112301E009F1AF
:100CE00001030AAA01A90CA8FFF7E4FEDDE90C70D4
:100CF000002609F10105834647E001204B4600909C
:100D00004FF000470AAA01A90CA8FFF7D3FEDDE9BE
:100D10000DB00C995D46002610B909F101000D18BF
:100D2000B9EB050003D4C0F1FF3609F10105A5EBCD
:100D300009002BE0B9F1010F01DA4FF001090020A1
:100D4000B9F1110F0090484601DD112300E0034680
:100D50000AAA01A90CA8FFF7ADFEDDE90C704D460B
:100D600000268346207800070AD4AB4500DA5D46AA
:100D700001A8012D04DD411911F8011C302907D00B
:100D80004F4502DA17F1040F04DA012082460FE022
:100D90006D1EEEE7002F02DCED1B3E4403E0781CE5
:100DA000A84200DD7D1CB81B00F1010A4FF000478E
:100DB0002078000703D4AA4501DB4FF0FF3A002159
:100DC000B7F1004F0DF143088DF8431024D00220F5
:100DD0002B23002F01DA7F422D230A21021EA0F1CE
:100DE000010000DC5FB197FBF1FC97FBF1F201FB26
:100DF0001C7C17460CF1300C08F801CDEEE7A8F189
:100E0000010003702188090501D5452100E0652115
:100E1000A0F1010800F8011C09980FA9A1EB08072F
:100E2000FF1D00B10120411901EBEA70A1693844AE
:100E3000081A401EA0612078C00602D42046FFF7A1
:100E400059FA099828B1D4E901219047206A401C39
:100E500020622078C00622D52046FFF74BFA1EE01C
:100E6000002E04DBB34502DD01A8805D00E03020E8
:100E7000D4E901219047206A401C2062761CAAF127
:100E800001005FEA000A0AD100F09EF8C06801681C
:100E9000405CD4E901219047206A401C2062281E52
:100EA000A5F10105DCDC07E0D4E9012118F8010B0C
:100EB0009047206A401C2062381EA7F10107F3DC2E
:100EC0002046FFF72DFA032011B043E610B5436921
:100ED00013B1AFF3008001E0FFF79DFB012010BDCF
:100EE000127800F124010A7000224A700122EDE715
:100EF00011684FF0FF32E9E710B5436913B1AFF362
:100F0000008001E0FFF78AFC012010BD128800F18B
:100F1000240182840022C2840122EDE711684FF08F
:100F2000FF32E9E7007B00F08000704770B516469D
:100F30000C46054600F040F8036893F801010128CB
:100F400006D0FF2C0FD8185D68B101202C7070BD41
:100F5000D3F807013246214603F20713034428461B
:100F6000BDE8704018474FF0FF3070BD754600F087
:100F7000E7F8AE4605006946534620F0070085466F
:100F800018B020B5FFF784F9BDE820404FF0000607
:100F90004FF000074FF000084FF0000B21F0070161
:100FA000AC46ACE8C009ACE8C009ACE8C009ACE8A4
:100FB000C0098D467047000010B500F005F8001D0F
:100FC00010BD00BF0143000000487047680C0020BE
:100FD0002DE9F0411F46044603260168072A01F463
:100FE000006004DB08B116A505E016A503E008B112
:100FF00015A500E015A521F010002060A069C01E15
:10100000A0610FB1401EA0612046FFF773F94FB1F8
:10101000D4E9012138469047206A401C2062C01C58
:10102000206206E0206AFAE7D4E9012115F8010BF5
:101030009047761EF8D22046FFF772F9BDE8F0819E
:101040004E414E006E616E00494E4600696E66006C
:101050002DE9F047814616468AB0334878440DC8DA
:101060008DE80D0030487844801C03AC0DC884E83E
:101070000D0041F69B300844372190FBF1F290FBC4
:10108000F1F5A5F1800501FB12041B3C02D5644279
:10109000012000E00020DFF890A080460027FA44FD
:1010A000AAF1BE0A0DE0E00709D03246684607EB18
:1010B00047010AEB810100F00CFB8DE8070064108A
:1010C0007F1C002CEFD1184F7F44AC3F18E0E8079D
:1010D00014D007EB04100DF1180A90E80E008AE80E
:1010E0000E00C068F04201D198190890324606A956
:1010F00003A800F0EEFA03AB83E807006D10641C50
:10110000002DE4D132466946B8F1000F03A802D0A1
:1011100000F0CBFA01E000F0DCFAC9E90001C9F8FF
:1011200008200AB0BDE8F0872846000010B5044644
:10113000AFF300802046BDE81040FFF794B80000F0
:1011400000487047480C00204FF0013C50F8042B39
:1011500051F8043B9A4221D1A2EB0C03934313EACA
:10116000CC1317D150F8042B51F8043B9A4215D1F7
:10117000A2EB0C03934313EACC130BD150F8042BCE
:1011800051F8043B9A4209D1A2EB0C03934313EAB2
:10119000CC13DBD04FF00000704700BFD01A01BA6B
:1011A000B1FA81F101F0180122FA01F0CB40C1F14E
:1011B0002001DBB2C0B2C01A2CFA01F3D11A91435C
:1011C00011EAC311E6D170475FEA400C08BF91F005
:1011D000000F4FEA8C234FEAC12243EA51514FEAF4
:1011E0001C5018BF00F5F0404FEA300018BF41F026
:1011F00000415FEA6C5C00F02980BCF1FF3F08BF52
:1012000040F080407047130C06BF12044FF0100CE2
:101210004FF0000C130E04BF12020CF1080C130F58
:1012200004BF12010CF1040C930F04BF92000CF1E7
:10123000020CD30F04BF52000CF1010C11464FF009
:101240000002A0F11F00A0EB0C00704711F0004F4E
:1012500008BF704731F000413FF4D5AF0B0C06BF1B
:1012600009044FF0100C4FF0000C0B0E04BF0902E4
:101270000CF1080C0B0F04BF09010CF1040C8B0FCF
:1012800004BF89000CF1020CCB0F04BF49000CF124
:10129000010CCCF12003A0EB0C0022FA03F302FABC
:1012A0000CF241EA030100F10100704720F07F4C8D
:1012B00080EA030023F07F47ACEB070303F57C5380
:1012C00000F0004003F1FF032DE980494FEA154B80
:1012D00009B44FEA144325EA0B4E24EA03480FF2FF
:1012E000042606EB132749083E785FEA320203FB27
:1012F0000667C7F5000707FB06F64FEA54374FEAC3
:10130000D64606F1020607FB066CCCF1005C4FEAFC
:101310001C472CEA074C07FB06F40CFB06F504EB14
:1013200015464FEA961634BF00204FF000404FEAB2
:10133000D13706FB07FC4FEA1C4C0CFB0BF7D21B0A
:1013400003FB0CF761EB07010CFB0EF7B0EB07405A
:1013500072EB17420CFB08F734BFA2EB0742B2EB6B
:10136000074261EB17414FEA0C444FEA910706FB35
:1013700007FC4FEA1C4C0CFB0BF7B0EBC74072EBC1
:10138000573203FB0CF734BFA2EBC742B2EBC742A4
:1013900061EB57310CFB0EF7B0EBC70072EB5772E5
:1013A0000CFB08F734BFA2EBC702B2EBC70261EB3C
:1013B0005771039F4FEA816141EA921104EBCC041B
:1013C0004FEAD1374FEA826206FB07FC42EA9012ED
:1013D0004FEA80604FEA1C4C0CFB0BF7D21B03FB5F
:1013E0000CF761EB07010CFB0EF7B0EB074072EB5B
:1013F00017420CFB08F734BFA2EB0742B2EB0742DF
:1014000061EB17414FEA8C554FEA910704EB9C249E
:1014100006FB07FC4FEA1C4C0CFB0BF7B0EBC7407C
:1014200072EB573203FB0CF734BFA2EBC742B2EBAF
:10143000C74261EB57310CFB0EF7B0EBC70072EB04
:1014400057720CFB08F734BFA2EBC702B2EBC7021E
:1014500061EB577115EB4C254FEA816141EA92111E
:101460004FEA82624FEAD13742EA901206FB07FC4C
:1014700044F100044FEA80604FEA1C4C0CFB0BF770
:10148000D21B03FB0CF761EB07010CFB0EF7B0EB73
:10149000074072EB17420CFB08F734BFA2EB074280
:1014A000B2EB074261EB174115EB1C154FEA813196
:1014B00041EA92414FEA823242EA90424FEA80305A
:1014C0004FEA0C7644F1000448EA03434EEA0B4825
:1014D0004FF0000EB2EB080C71EB030724BF62461D
:1014E00039464EEB0E0E4FF0000B001852414941A9
:1014F0004BEB0B0BB2EB080C71EB03077BF1000B12
:1015000024BF624639464EEB0E0E4FF0000B00181A
:10151000524149414BEB0B0BB2EB080C71EB03074B
:101520007BF1000B24BF624639464EEB0E0E51EAAA
:10153000020718BF46F0010616EB0E7655F10002C1
:1015400054F1000103D5BDE88901BDE80088BDE87C
:101550008901BDE80048B619524141EB0101A3F1F0
:101560000103704780807F7E7D7C7B7A79787776F7
:1015700076757473727171706F6E6E6D6C6C6B6A70
:101580006A6968686766666564646363626161600E
:10159000605F5F5E5E5D5D5C5C5B5B5A5A5959588B
:1015A00058575756565555555454535352525251F5
:1015B000515050504F4F4F4E4E4D4D4D4C4C4C4B4B
:1015C0004B4B4A4A4A494949484848474747474692
:1015D00046464545454444444443434343424242CE
:1015E00042414141002B26D4770021D01CB54FEA5F
:1015F000370703B44FF010004FF010014FF0000018
:101600000FBCBDE810400BF1010BBBF1010F08BF8F
:101610005FEA170722BF12F1010211F101014FF039
:10162000004143F1000300F0004043EA000070472E
:10163000F9D35708DAE746EA064613F1400F4FEAB6
:1016400016461FDD13F1200FDFBF16430A460021A7
:1016500020335B42C8D0C3F1200746EA064602FAAF
:1016600007F74FEA164646EA0706C3F1200722FAB3
:1016700003F201FA07F721FA03F14FF0000342EAFF
:101680000702B1E746EA020646EA06464FEA164670
:1016900046EA0106BCBF46EA0646360C4FF0000398
:1016A0004FF000024FF000019EE72DE9C04893463D
:1016B00030B491E8380007C831EA400C48BF34EA3A
:1016C000430C03D5FFF7F2FDFFF78CFFF0BCBDE83C
:1016D00000882DE9C048934630B491E8380007C827
:1016E00010F0804F08BF13F0804F03D100F005F8D1
:1016F000FFF778FFF0BCBDE8008820F07F4780EA64
:10170000030023F07F4C07EB0C03A3F57C5300F0A0
:101710000040A3F1FE0392F0000F00F0B38095F0BB
:10172000000F00F077802DE901494FEA11404FEAA0
:10173000144621EA004800FB06FC24EA064708FBA1
:1017400006F607FB08F800FB07F718EB06484CEB1A
:10175000164C4FEA124B18EB07484FEA15464CEB74
:10176000174022EA0B4E0BFB06FC25EA06470EFB50
:1017700006F607FB0EFE0BFB07F71EEB064E4CEBC7
:10178000164C4FF000061EEB074E4CEB174B18EBB8
:101790000B0840F1000018EB0E0B58EB000840F16D
:1017A00000008F1A4FF000013CBFC943661B14BFF5
:1017B000B5EB040C00213CBFC943F61B4FEA1744AC
:1017C0004EEA8E0E27EA04454FEA1C4704FB0762E7
:1017D0002CEA074C05FB07F70CFB05F604FB0CFC99
:1017E00016EB074642EB174216EB0C4642EB1C4247
:1017F0001BEB060658EB0202414146EA9E0601D564
:10180000BDE80189B619524141EB0101A3F1010381
:10181000BDE801894FEA14454FEA114724EA05461D
:1018200021EA074C05FB07F406FB07F70CFB06F162
:1018300005FB0CFC11EB074144EB17444FEA124740
:1018400011EB0C4144EB1C4422EA074C05FB07F268
:1018500006FB07F70CFB06F605FB0CFC16EB074630
:1018600042EB174216EB0C4642EB1C456A1854F14A
:10187000000148BF7047B619524141EB0101A3F185
:101880000103704795F0000F37D04FEA11424FEA3D
:10189000144721EA024624EA074C02FB07F106FB43
:1018A00007F70CFB06F402FB0CFC14EB074441EBBE
:1018B00017414FEA154714EB0C4441EB1C4125EA54
:1018C000074C02FB07F506FB07F70CFB06F602FBCD
:1018D0000CFC16EB074645EB174516EB0C4645EBA3
:1018E0001C42121951F1000148BF7047B61952410C
:1018F00041EB0101A3F1010370474FEA14454FEAA0
:10190000114724EA054621EA074C05FB07F106FBCF
:1019100007F70CFB06F24FF0000605FB0CFC12EB80
:10192000074241EB174112EB0C4251EB1C4148BFFF
:101930007047921841EB0101A3F1010370470000C9
:1019400002E002A0FEF7CAFCFBE700004275734606
:1019500061756C745F48616E646C65720A000000AA
:101960000146CAB20B1243EA0220704708B50020B4
:10197000009022E19748008800F00F009649087017
:101980000846007800287CD1944800689449088073
:101990000846008800F0300092490880904800888E
:1019A00000F440508E4908808C4909684BF6BF729C
:1019B00001EA020080F4005080F0200040F4004171
:1019C00041F08001854A11608248008800F01000D3
:1019D00090BB1046006848F60F7108401146086039
:1019E00000F0E4FE7D4909684BF6BF7201EA02008F
:1019F0007B49098801F4805109B180F4805078490D
:101A0000098801F4005109B180F400507549098832
:101A100001F0100109B180F010007249098801F04D
:101A2000200109B180F0200081B241F4004141F071
:101A300080016A4A116008BDFFE76848006880B20B
:101A40000090BDF8000000F40060B0B36348006887
:101A5000C0F30E0048F68F7108406049086002F03C
:101A6000A5FA5E4909684BF6BF7201EA02005C49BB
:101A7000098801F4805109B180F4805058490988DF
:101A800000E056E001F4005109B180F400505549DE
:101A9000098801F0100109B180F01000514909884E
:101AA00001F0200109B180F0200081B241F4004131
:101AB00041F08001494A1160BDE7FFE7BDF8000031
:101AC00000F40040002878D044480068C0F30E00BD
:101AD00048F68F7108404149086001F029F93F49F3
:101AE00009684BF6BF7201EA02003D49098801F41A
:101AF000805109B180F480503949098801F40051BE
:101B000009B180F400503749098801F0100109B18A
:101B100080F010003349098801F0200109B180F0FC
:101B2000200081B241F4004141F080012B4A116054
:101B300081E7294800782C4901EB8000D0F8000C9F
:101B400080B20090BDF8000000F40040C0B122480F
:101B5000007801EB8000D0F8000CC0F30E0048F6CE
:101B60008F7108401C4909781F4A02EB8101C1F8B6
:101B7000000C19490978491E1C4A52F82100804777
:101B8000BDF8000000F08000B8B113480078164995
:101B900001EB8000D0F8000C48F60F7108400E49A8
:101BA0000978114A02EB8101C1F8000C0A49097851
:101BB000491E0F4A52F82100804708484430006807
:101BC00080B20449088000F4004000287FF4D2AEBF
:101BD00000BF30E74400002020010020005C0040EE
:101BE0003401002036010020005000406400002035
:101BF000480000202DE9F04107468846154604219B
:101C0000052000F02DF80021012003F0F7F98021D4
:101C10000A2001F0F9FF002405E0395D092003F0F6
:101C2000EDF9601CC4B24445F7DB0321012003F049
:101C3000E5F9FF2400BF052001F0F0FC0646601E18
:101C4000C4B21CB106F004000028F4D0222001F038
:101C5000E5FC2870212001F0E1FC6870BDE8F0810E
:101C600070B505460C460026284601F0D7FC06460E
:101C700026EA0401284603F0C1F970BD0B4A02EBC5
:101C80008001D1F8001C01F4804171B102EB8001A8
:101C9000D1F8001C48F68F7211404CF280021143BB
:101CA000024B03EB8002C2F8001C7047005000405A
:101CB0000B4A02EB8001D1F8001C01F0400171B128
:101CC00002EB8001D1F8001C48F68F72114048F2F7
:101CD000C0021143024B03EB8002C2F8001C7047A4
:101CE00000500040084A02EB8001D1F8001C48F681
:101CF0008F62114048F280021143034B03EB8002D4
:101D0000C2F8001C704700000050004070B5044647
:101D10000025062C10D114480068007800F07F00E0
:101D2000012809D110480068407928B90E48006898
:101D3000807822280AD009E00B480068007800F07B
:101D40007F00212802D1032C00D1084D0DB90220BB
:101D500070BD054800688561002103480068418224
:101D60000020A8470020F3E724010020991D000867
:101D700010B504460249204602F040FA10BD0000AA
:101D8000E400002010B504460249204602F036FA6D
:101D900010BD0000DC000020014629B90120034AE3
:101DA00012681082002070470148FCE724010020DF
:101DB0008000002070B5054606480068C478042CF1
:101DC00001DD002070BD044800EBC401284602F08C
:101DD00015FAF7E724010020F4000020024600294C
:101DE00001DD02207047002A01DD0220FAE7002011
:101DF000F8E7000000B5024606480068007800F0E9
:101E00007F00212804D10B2A02D100F09DF800BDEB
:101E10000220FCE72401002010B500203D4909689C
:101E200088723C490968C8723B48C07939490968D9
:101E30004872002001F0E0FE4FF40071002001F034
:101E4000E3FF1021002001F0A5FF4021002001F058
:101E500011FF8021002001F07FFF0020FFF742FFEB
:101E60002E4890F82C10002001F016FF002001F001
:101E700059FF4FF4C061012001F0C6FF302101205D
:101E800001F088FF4FF48071012001F0F3FEC021C2
:101E9000012001F061FF1021012001F0FDFE012071
:101EA00001F040FF012001F095FF2021012001F009
:101EB00071FF4FF44051012001F014FF0021022076
:101EC00001F0A2FF1021022001F064FF4FF4C07165
:101ED000022001F0CFFE4FF4A071022001F03CFF80
:101EE0004021022001F0D8FE022001F01BFF022059
:101EF00001F070FF2021022001F04CFF4FF440510F
:101F0000022001F0EFFE002001F08CFE01200449C8
:101F1000086010BD240100205255000888000020F0
:101F2000140100200348817A11B10521024A116091
:101F3000704700002C0C00201401002004200149EF
:101F4000086070471401002003480068C178034806
:101F50000160002070470000240100208000002064
:101F60007047704710B500F0F1FB00200549096883
:101F7000887201F021F902F027FF00200249086071
:101F800010BD000024010020140100202DE9F047BD
:101F90002848006800F110052E8826480068077A56
:101FA000D6B9042F18D12448007801280FD1002178
:101FB0002248006880B2801C214A42F8101030206C
:101FC0002049088000BF00201B49087003E0072754
:101FD00010201C49088027E0AC88A64201D80420C4
:101FE00000E002200746B44200D93446A0B2A968F6
:101FF00088478046002000F099FB8146A2B24946FE
:10200000404602F031FFA1B2002001F0B5FE288861
:10201000001B288068882044688030200949088097
:1020200000020949088000BF024909680F72BDE833
:10203000F0870000240100201E010020505C0040B9
:102040000060004036010020340100202DE9F041FD
:102050002848006800F110042688A068C0B1BEB10D
:10206000A588B54200D93546A8B2A1688847074679
:102070002088401B2080608828446080002000F079
:1020800033FB8046AAB24146384600F079FE00BFD5
:10209000208850B14FF4405017490880002108466D
:1020A00001F06AFE3020154908802088A188884206
:1020B00004DB03200F490968087218E02088002813
:1020C00004DD05200B490968087210E0208870B90A
:1020D000062008490968087200210948006880B292
:1020E000801C084A42F81010302004490880BDE8DE
:1020F000F08100002401002034010020360100207E
:10210000505C0040006000402DE9F84F9B4800689B
:1021100045780027BA46062D1BD1984800680078FC
:1021200000F07F00002813D19449096888780128BD
:1021300003D193490968CF690AE0022803D1904985
:1021400009680F6A04E0032802D18D4909684F6AC3
:1021500094E0002D64D189480068408800285FD150
:1021600086480068C08802285AD1844800680079EF
:10217000002855D181480068007800F07F0028B918
:102180007E480068808808B97E4F77E07B48006809
:10219000007800F07F00012810D17849096848795B
:1021A000774909688A6900219047002866D17348F9
:1021B0000068807A002861D0724F5FE06F48006845
:1021C000007800F07F00022858D16C480068407900
:1021D00000F00F0669480068407900F07009674810
:1021E0000068407900F0800038B1674901EB860053
:1021F000D0F8000C00F0300806E0634901EB8600DF
:10220000D0F8000C00F4405860480078B04235D94E
:10221000B9F1000F32D1B8F1000F2FD0594F2DE096
:10222000082D07D155480068007800F07F0028BBD2
:10223000574F23E00A2D21D150480068007800F064
:102240007F0001281AD14D480068807AB0B14B4810
:102250000068408890B949480068007970B94748DB
:102260000068C088012809D144490968487944496F
:1022700009688A690021904700B9464F57B13F4825
:102280000068A0F812A03D48006887610020B847A8
:1022900000240FE0394A12685078394A12681169EF
:1022A00088470446032C05D109203449096808727F
:1022B000BDE8F88F31480068008A4FF6FF71884208
:1022C00004D109202D4909680872F1E7022C03D0D6
:1022D0002A480068008A20B908202849096808723D
:1022E000E6E726480068007800F08000E0B3234865
:1022F0000068C088009021480068008A00998842E0
:1023000004D91E4900980968088223E01B48006828
:10231000008A1A490968C98888421BDA1748006888
:10232000008A1749096891F82C10884203DA0020C6
:10233000194908700EE011480068008A10490968C0
:1023400091F82C1090FBF1F201FB120010B9012062
:10235000114908700A48006890F82C100748006876
:102360008182FFF713FE07E0FFE7032003490968B6
:10237000087200030949088000BF99E72401002082
:10238000280100204D420008005000408400002039
:10239000D1410008214200081E0100203401002024
:1023A0007047000001200149487070476C0100200F
:1023B00010B50649012002F019FD0449C91E087034
:1023C0004FF44051012001F08DFC10BD6F01002041
:1023D0000120014948707047AF01002010B5044941
:1023E000022002F003FD0249C91E087010BD000062
:1023F000B201002001490860704700001404014048
:1024000070472DE9F04105460E46042700F0A2F87A
:10241000342000F015F82C460DE04FF0006101EB80
:10242000842000F013F80746042F02D00120BDE8F5
:10243000F081601CC4B2B442EFDD0020F7E7000079
:102440000149C860704700000020024030B50446D2
:1024500004254FF4302000F089F80546042D17D1EB
:102460000C48006940F002000A49086108464461CE
:10247000006940F0400008614FF4302000F076F829
:1024800005460448006941F6FD71084001490861AC
:10249000284630BD0020024004200B49C96801F0E5
:1024A000010109B101200EE00749C96801F00401EA
:1024B00009B1022007E00449C96801F0100109B11F
:1024C000032000E004207047002002400348006918
:1024D00040F0800001490861704700000020024080
:1024E0000549096821F01001034A11601146096885
:1024F00001431160704700000020024070B504469F
:102500000D460426F00200F031F80646042E11D1E3
:102510000948006940F00100074908612580F00280
:1025200000F024F806460448006941F6FE710840B0
:1025300001490861304670BD00200240014600207C
:10254000034A106800F0380008431060704700002C
:102550000020024002480349486003484860704731
:102560002301674500200240AB89EFCD00B502464C
:102570000423FFF791FF034603E0FFF78DFF0346B7
:10258000521E012B01D1002AF7D102B905231846AA
:1025900000BD000008B50121082000F079FE1020E0
:1025A000ADF8000003208DF8020010208DF8030024
:1025B0006946044800F008F81021024800F08FF83E
:1025C00008BD0000000C01402DE9F0410246002545
:1025D0000026002000230024002791F803C00CF0FF
:1025E0000F0591F803C00CF0100CBCF1000F03D0E4
:1025F00091F802C04CEA050591F800C0BCF1000F4B
:1026000031D0146800202BE04FF0010C0CFA00F3DD
:10261000B1F800C00CEA03069E4220D183004FF0BF
:102620000F0C0CFA03F7BC4305FA03FC4CEA040454
:1026300091F803C0BCF1280F06D14FF0010C0CFA41
:1026400000FCC2F814C00AE091F803C0BCF1480FC6
:1026500005D14FF0010C0CFA00FCC2F810C0401C70
:102660000828D1D31460B1F800C0BCF1FF0F34DDED
:10267000546800202EE000F1080C4FF0010808FA21
:102680000CF3B1F800C00CEA03069E4221D183008E
:102690004FF00F0C0CFA03F7BC4305FA03FC4CEAAD
:1026A000040491F803C0BCF1280F05D100F1080C17
:1026B00008FA0CF8C2F8148091F803C0BCF1480F76
:1026C00007D100F1080C4FF0010808FA0CF8C2F825
:1026D0001080401C0828CED35460BDE8F0814161D1
:1026E000704701617047000001460548006880B2EC
:1026F00000EBC100001D034A32F8100080B27047A1
:10270000505C00400060004001460648006880B20E
:1027100000EBC100801D044A32F81000C0F309002C
:1027200070470000505C00400060004001460548D2
:10273000006880B200EBC100034A32F8100080B29A
:1027400070470000505C00400060004070B50A48CF
:102750000468001D0568001D0668344454B1082251
:102760000649204600F05AF8042204491031284650
:1027700000F054F870BD0000E8F7FF1F29000020AA
:1027800001480068704700000800002002E002A035
:10279000FDF7A4FDFBE70000486172644661756CBB
:1027A00074204572726F72210A00000010B518483B
:1027B0000068047A022C01D0042C05D1FFF7E6FB57
:1027C00013480068047A1CE0062C19D110480068F0
:1027D000407805280ED10E480068007800F07F0090
:1027E00040B90B490968C87801F01CFA0949096821
:1027F000086A80470849096888688047082400E01B
:102800000824034909680C7200F0B2FC10BD0000F6
:1028100024010020300100202801002030B50B46A3
:10282000002100BF16E00A24B4EB107F05D9302444
:1028300004EB107403F8114005E0412404EB10741C
:102840000A3C03F81140000100254C00641C1D5592
:102850004C1CE1B29142E6DB30BD00000146490666
:10286000084A926942F00102064B9A61064A526890
:1028700022F0E062044B5A601A4652680A435A60DA
:1028800070470000001002400000014010B500F049
:10289000C3FF002017490860012002F005FC012059
:1028A0001549C1F88C011549086002F0FDFB0020B4
:1028B0001349C1F8BC010021212000F08DF800214E
:1028C000C82000F089F80021062000F085F80021DA
:1028D000132000F081F80021202000F07DF8002175
:1028E0000C2000F079F800F00DF801200349086091
:1028F00010BD00008C81214200802142BC01214298
:102900000000214210B500200D4908600021802000
:1029100000F062F8012002F0C7FB0021402000F027
:102920005BF8002405E00121002000F055F8601C50
:1029300084B2B4F5FC7FF6DB01200149086010BDCC
:10294000BC01214208B501210D2000F0A1FC41F29B
:102950000800ADF8000003208DF8020010208DF86B
:10296000030069460A48FFF72FFE4FF40040ADF818
:10297000000003208DF8020010208DF80300694646
:102980000448FFF721FE01200349086008BD00004C
:10299000000C014000080140BC0121420FB430B5D9
:1029A000ADF2044D04460D460DF21C40CDF8000476
:1029B0006846DDF80024DDF81814FDF77DFC6A4652
:1029C0002946204600F036F80020CDF800040DF22C
:1029D000044D30BC5DF814FB70B505460C461CB9BF
:1029E00000200549086002E00120034908602846EC
:1029F00000F060FF70BD0000B081214270B5044658
:102A00000D460D2C00DD0D24052D00DD052504EB04
:102A100044004006040E44F080000021FFF7DCFF74
:102A20000A2002F041FB45F040000021FFF7D4FFEF
:102A300070BD00002DE9F0478046894616463546B0
:102A4000002400270DB9BDE8F08700201749086071
:102A500049464046FFF7D2FF11E000240CE02878F9
:102A6000203800EB4000124901EB4000025D38467F
:102A70007F1C10490A54641C062CF0DB6D1C28785E
:102A80000028EAD1002238467F1C0A490A54002453
:102A900005E00849085D0121FFF79EFF641CBC4268
:102AA000F7DB01200149086000BFCCE7BC012142EF
:102AB000125300080404002008B50121102000F082
:102AC000E7FB10208DF8030003208DF802004FF47F
:102AD0000050ADF8000069460448FFF775FD4FF45B
:102AE00000510248FFF7FDFD08BD00000010014045
:102AF000704710B50446412C26D108210846FFF73F
:102B0000AFF83D21112002F079FA8621172002F05A
:102B100075FA7F21262002F071FA1E212D2002F085
:102B20006DFA00212C2002F069FA8D212A2002F092
:102B300065FA3E212B2002F061FA4FF47A7002F020
:102B4000D1FA00F037F901E0012010BD0020FCE7C8
:102B500000BFFEE710B502A0FDF7C0FB10BD0000EE
:102B60004E4D495F48616E646C6572210A00000039
:102B70007047000070B5002100230F22C47804B311
:102B8000154C246804F4E064C4F5E064210AC1F142
:102B90000403CA40447804FA03F1847814402143C2
:102BA00009010E4C0678A155047804F01F05012494
:102BB000AC4005786D11AD0005F1E025C5F8004188
:102BC00009E0047804F01F050124AC40044D0678A8
:102BD000761145F8264070BD0CED00E000E400E001
:102BE00080E100E002490143024A116070470000A1
:102BF0000000FA050CED00E070B5022647480068B9
:102C0000447846480068007800F07F00002844D1EE
:102C1000092C03D101F09AFB06465FE0052C14D184
:102C20003E480068C0787F280BDC3C48006880780C
:102C300038B93A480068808818B938480068807AFE
:102C400008B1082565E0002648E0032C0ED1334882
:102C50000068C078012807D130480068808818B91A
:102C600001F098FB064639E0022637E0012C35D109
:102C70002A480068C07801280DD12848006880885B
:102C800048B926480068407A00F0200018B101F0E9
:102C9000E9F9064622E0022620E020480068007894
:102CA00000F07F00012805D10B2C17D101F0EEFBBD
:102CB000064613E019480068007800F07F000228FB
:102CC0000BD1012C03D101F0CDF9064606E0032C0F
:102CD00004D101F073FB064600E002264EB1E0B2DB
:102CE0000F4A1268516988470646032E01D109250B
:102CF0000FE00EB108250CE0062500210948006808
:102D000080B2801C084A42F8101030200749088021
:102D100000BF024909680D7270BD00002401002047
:102D200028010020505C0040006000403601002077
:102D300010B511480068047A022C01D0042C01D18E
:102D4000082412E0032C01D0052C05D1FFF77EF9F1
:102D500009480068047A08E0072C05D1074909688A
:102D6000C8688047082400E00824034909680C72F9
:102D700000F0FEF910BD0000240100202801002011
:102D8000F0B5561C7510074E06EB41042B4605E0C6
:102D900034F8047B20F8017B401C5B1E002BF7D12C
:102DA000F0BD00000060004010B503211420FEF7C4
:102DB00057FF10BD10B5142000F030FC044604F09D
:102DC000030018B90321142000F01EFF10BDF0B558
:102DD00087B00546002708210846FEF741FF00217D
:102DE0000D2002F00BF980210E20FEF739FF932011
:102DF0008DF8040020208DF8050006A801AB022202
:102E000001A900900C2000F045F8064686B9002480
:102E100007E001A8005D285501A8005D4740601C3F
:102E2000C4B2042CF5DB01A8005DB84200D0022634
:102E300080210E2000F0E8FE304607B0F0BD2DE9FD
:102E4000F04188B004460D4616461F468DF80840EE
:102E50008DF809503068CDF80A00B088ADF80E0042
:102E60003868049007A802AB0C2202A900900E203B
:102E700000F010F88046B8F1000F05D1082000F0EE
:102E8000CDFB00F0080008B94FF00208404608B03A
:102E9000BDE8F0812DE9FE4F0646884691469A46E8
:102EA000DDF830B0022002900020019000900C2E3E
:102EB00006D00E2E09D1122001901020009005E0BE
:102EC000772001903020009000E000BF00BF019803
:102ED00040F08001022002F091F880210420FEF7EA
:102EE000BFFE0021012002F089F880210A2000F0B5
:102EF0008BFE002506E018F80510092002F07EF888
:102F0000681C85B24D45F6DB3146012002F076F8AB
:102F10000C2E03D180210D2000F076FE4FF41675A3
:102F200000BF042000F07AFB0446681E85B235B16C
:102F300004F0010018B9009820400028F1D0802149
:102F40000D20FEF78DFE002D38D0062000F066FB28
:102F500000F01B0078BB002002900198204000F098
:102F6000010008B1012002900C2E27D10A2000F0A8
:102F700055FB04460C2000F051FB00F007072FB171
:102F8000601E07EBC0008BF8000003E0E006000EB7
:102F90008BF8000004B90124122C00DD1224002556
:102FA00006E0092000F03AFB0AF80500681C85B22B
:102FB000A542F6DB02E0FFE70220029080210C2010
:102FC00000F022FE0021012002F018F80298BDE86E
:102FD000FE8FF0B587B005460E4630208DF8040010
:102FE0008DF805500DF10602022101A8FEF702FE40
:102FF00006A801AB042201A900900C20FFF74AFFAC
:1030000007466FB99DF81800902809D1002404E004
:1030100001A8005D3055601CC4B2102CF8DB00E044
:103020000227384607B0F0BD70B588B005460C469B
:1030300008210846FEF714FE07210D2001F0DEFFEF
:103040000321142000F0E0FD8DF8085007A802AB22
:10305000012202A900900C20FFF71CFF064656B97A
:103060009DF81C00102806D19DF8080020709DF8DE
:103070000900607000E00226304608B070BD000014
:1030800010B501201B4908600A2002F02BF800202F
:103090001949C1F8A4010A2002F024F801201549B9
:1030A00008600A2002F01EF80F21012001F0A6FF9F
:1030B0000F21012001F0A2FF0A2002F013F83D21A8
:1030C000112001F09BFF1E212D2001F097FF002110
:1030D0002C2001F093FF8D212A2001F08FFF3E214B
:1030E0002B2001F08BFF4021152001F087FF0020ED
:1030F00010BD0000A48121420080214270B588B03B
:10310000054693208DF8080070208DF809000020F6
:103110008DF80E0000240BE0295D02AAA01C1154BA
:103120009DF80E00295D48408DF80E00601CC4B269
:10313000042CF1DB0DF10F02072102A8FEF75AFD66
:1031400008210846FEF78CFD07A802AB092202A958
:1031500000900C20FFF79EFE06462EB99DF81C003D
:10316000182801D1002600E00226304608B070BDC4
:1031700010B50D4890F82C10002000F08DFD0B4884
:103180000068007A082805D140020949088010200B
:103190000849088005480068007A092801D1012003
:1031A00010BD0020FCE70000880000202401002062
:1031B000340100203601002010B5012001F040FD4F
:1031C00001240B48046000200A4908800846008852
:1031D000074908600020091D08604FF4E0500549C8
:1031E00008800846008802490860002010BD0000E1
:1031F000405C00402E01002010B50121092000F0A4
:1032000047F81348006820F4700011490860084628
:10321000006840F440100860081D006820F0F000CD
:10322000091D08600846006840F030000860084644
:103230000068C0F3130008600846006805490843A9
:103240000349091D086001200349086010BD000002
:10325000000C01400000B0B89481214210B500F08C
:10326000DBFA00F033FA4120FFF743FC10BD000009
:1032700029B1064AD2690243044BDA6104E0034AE9
:10328000D2698243014BDA617047000000100240AE
:1032900029B1064A92690243044B9A6104E0034A49
:1032A00092698243014B9A6170470000001002400E
:1032B0000F48006840F001000D490860084640686A
:1032C0000C4908400A494860084600680A49084015
:1032D000074908600846006820F480200860084616
:1032E000406820F4FE0048604FF41F00886070477B
:1032F000001002400000FFF8FFFFF6FE30B500218D
:103300000022002400232D4D6D6805F00C0121B131
:10331000042905D0082923D105E0294D056022E0C4
:10332000274D05601FE0254D6D6805F47012234D93
:103330006D6805F48034022505EB92421CB9214DDD
:10334000554305600BE01D4D6D6805F400351DB15A
:103350001C4D5543056002E0194D5543056002E0E0
:10336000174D056000BF00BF144D6D6805F0F001FA
:103370000909154D6B5C0568DD4045600F4D6D68B2
:1033800005F4E061090A104D6B5C4568DD4085601D
:103390000A4D6D6805F46051C90A0B4D6B5C4568B8
:1033A000DD40C560054D6D6805F44041890B074D52
:1033B0006B5CC568B5FBF3F5056130BD00100240DC
:1033C00000127A0000093D00380100204801002069
:1033D00010B501460022002300204A11012A02D123
:1033E000094C236806E0022A02D1074C236A01E057
:1033F000054C636A01F01F02012494401C400CB18B
:10340000012000E0002010BD00100240024840688A
:1034100000F00C0070470000001002400146002040
:10342000034A506820F0F0000843506070470000E5
:10343000001002401149096821F480310F4A1160DF
:103440001146096821F480211160B0F5803F03D056
:10345000B0F5802F0ED106E00849096841F48031AB
:10346000064A116007E00549096841F4A021034AB2
:10347000116000E000BF00BF704700000010024074
:1034800001460020034A506820F4E0600843506081
:10349000704700000010024001460020034A5068B7
:1034A00020F4605040EAC1005060704700100240B4
:1034B00001490866704700000000424202460020B1
:1034C000044B586820F47C1042EA01031843014B76
:1034D000586070470010024001460020034A5068BF
:1034E00020F00300084350607047000000100240C5
:1034F0000149086070470000D800424238B50020FA
:1035000000900024002500BF3120FFF761FF054631
:103510000098401C00900098B0F5A06F01D0002DDD
:10352000F2D03120FFF754FF08B1012400E000245D
:10353000204638BD70B50546FFF7A2FD144952205C
:10354000FFF772FD44B204B170BD1148801CFFF753
:103550003EFC44B204B1F7E70D48D0F80200286001
:103560000C48FFF7CBFD44B204B1EDE7094B0A4A22
:1035700004216020FFF763FC44B204B1E4E704498E
:103580000420FFF726FD44B204B1DDE700BFDBE70E
:10359000FC0500200C0000203A55000870B50446D8
:1035A0000D460748007848B122460549C91C2846FF
:1035B000FCF7D6FF00200249087070BD0120FCE72F
:1035C0006C01002070B505460C462E4600F086F8CA
:1035D0001EE0FFF7D5F80F2801D9012070BD0E4875
:1035E0000078A8B10C480278C11C2046FCF7B8FF4F
:1035F00009480078044408480078361A0020064933
:1036000008704FF44051022000F06CFB00F066F8A7
:10361000002EDED10020E1E7AF01002070B50446A6
:1036200000260020094908607E2000EA440040F09E
:103630008005284600F03EF9FF2000F03BF90646E1
:1036400001200349C1F89401304670BD94812142A4
:10365000008021422DE9F04105460E461746FFF74E
:103660000FFD18495220FFF7DFFC044614B1022079
:10367000BDE8F0811348801CFFF7A9FB04460CB19C
:103680000220F5E710480F49D1F802100160FFF75A
:1036900035FD04460CB10220EAE70B4B3A462946B9
:1036A0006020FFF7CCFB04460CB10220E0E7314676
:1036B0002846FFF78EFC04460CB10220D8E7002014
:1036C000D6E70000FC0500200C00002010B5FFF735
:1036D000D7FCFFF769FBFFF76DFB10BD0020024927
:1036E00008700249086070470400002008000020AC
:1036F00070B50546072D01D027480570264800788B
:10370000082841D2DFE800F0040A1016212E4142B9
:1037100000F046F80620204908703BE000F040F831
:1037200004201D49087035E002201B494870032021
:1037300008702FE018484078401E17494870084626
:10374000407808B90420087024E01448006884B266
:1037500044F010041148046005200F4908700A2045
:10376000487017E00C484078401E0B4948700846E6
:10377000407840B90948006884B224F01004074832
:1037800004600620087005E000BF00BF0620024963
:10379000087000BF00BF70BD19010020405C0040F0
:1037A00010B50748006884B224F00404044804609B
:1037B000FFF79EF94FF43F400149086010BD00003B
:1037C000405C004070B50546002405E0601CC4B2B2
:1037D000C82C01DD002070BD02210E4800F09EF9CA
:1037E0000028F3D029460B4800F0A4F9002400BFBC
:1037F0000121084800F092F90028F9D0601CC4B2F9
:10380000C82C01DD0020E6E7024800F090F9C0B2C4
:10381000E1E700000030014008B501210D20FFF76D
:1038200037FD01218803FFF723FD4FF42040ADF859
:10383000000018208DF8030003208DF8020069466F
:103840001948FEF7C1FE04208DF8030003208DF80F
:1038500002004FF48040ADF8000069461248FEF7C0
:10386000B3FE4FF460411048FEF73BFF00200F49C4
:1038700008804FF48270488000208880C8800881CA
:103880004FF400704881202088810020C8810720E3
:103890000882074800F050F90121054800F034F88B
:1038A000002000F007F808BD000C0140F2030020E2
:1038B0000038004070B50546002405E0601CC4B225
:1038C000C82C01DD002070BD02210E4800F026F951
:1038D0000028F3D029460B4800F02CF9002400BF43
:1038E0000121084800F01AF90028F9D0601CC4B280
:1038F000C82C01DD0020E6E7024800F018F9C0B24C
:10390000E1E700000038004021B1028842F04002A7
:10391000028004E002884FF6BF731A4002807047AD
:1039200070B505460E462C4603E0204600F014F81C
:10393000641CB442F9D970BD10B500200449086078
:103940000620FFF73FFF01200249C1F8800110BDAA
:10395000808121420080214210B504462403FFF7F4
:10396000EBFF00F05BF800200B4908602020FFF718
:1039700029FFC4F30740FFF725FFC4F30720FFF733
:1039800021FFE0B2FFF71EFF01200449C1F88001CA
:1039900000F044F810BD00008081214200802142E7
:1039A0002DE9F04104460E46174600200F490860F5
:1039B0000320FFF707FFC4F30740FFF703FFC4F33B
:1039C0000720FFF7FFFEE0B2FFF7FCFE002505E051
:1039D000FF20FFF7F7FE7855681C85B2B542F7DB8C
:1039E000012002490860BDE8F08100008081214289
:1039F00010B500240020074908600520FFF7E2FE0B
:103A0000FF20FFF7DFFE044601200349C1F88001D3
:103A1000204610BD808121420080214210B500BFA8
:103A2000FFF7E6FF00F001000028F9D110BD2DE9F5
:103A3000F04706460C4617464FEA1639C6F30B0800
:103A4000C8F58055AC4200DC254616E02A463146D2
:103A5000384600F016F8AC4200D10FE009F1010938
:103A60004FF000082F442E44601B84B2B4F5805FF1
:103A700002DD4FF4805500E02546E7E700BFBDE8D2
:103A8000F0872DE9F04107460E461446F0B2C0F526
:103A90008075AC4200DC254612E02A4631463846A5
:103AA00000F012F8AC4200D10BE02F442E44601B12
:103AB00084B2B4F5807F02DD4FF4807500E02546C6
:103AC000EBE700BFBDE8F0812DE9F04106460C466A
:103AD0001746FFF731FF00200F4908600220FFF76B
:103AE00071FEC4F30740FFF76DFEC4F30720FFF734
:103AF00069FEE0B2FFF766FE002504E0705DFFF7A7
:103B000061FE681C85B2BD42F8DB012002490860F5
:103B1000FFF784FFBDE8F08180812142024600204A
:103B200013890B400BB1012000E0002070470146D3
:103B3000888970478181704710B50022028802F49D
:103B400041520B884C8823438C882343CC882343E1
:103B50000C8923434C8923438C892343CC892343F9
:103B60001A430280838B4FF2FF74234083830B8AB6
:103B7000038210BD0146088870472DE9F0470546CD
:103B80000E4617464FF00409A84600240FE036F809
:103B900014104046FEF7B2FC8146B9F1040F02D082
:103BA0000120BDE8F08708F10208601C84B2BC4225
:103BB000EDDBA84600240CE04046FFF7DBFF36F8BB
:103BC0001410884201D00120EBE708F10208601CC4
:103BD00084B2BC42F0DB0020E3E7000010B502A095
:103BE000FCF77CFB10BD00005356435F48616E64D8
:103BF0006C65720A000000004FF6F8710140014A3E
:103C000011607047505C004070B505460C460026B8
:103C10002846FFF703FD064646EA0401284601F060
:103C2000EDF970BD30B501460F4B1A78002014E055
:103C300003060E4C04EB9353D3F8003C48F68F7404
:103C4000234048F280042343C4B223430406074DB3
:103C500005EB9454C4F8003C401C9042E8D341F07A
:103C60008003034C236030BD8400002000500040DE
:103C70004C5C004010B54A105300054A126892B2DD
:103C800002EBC002121D034C44F8123010BD0000BC
:103C9000505C00400060004010B502460F480068CC
:103CA00080B200EBC200801D0D4C04EB40033E29A6
:103CB0000BDD481101F01F040CB9441EA0B24FF4F3
:103CC000004444EA80241C6007E0481001F001042D
:103CD0000CB1441CA0B284021C6010BD505C0040BA
:103CE0000060004030B50E4C04EB8003D3F8003C7C
:103CF0004BF68F7403EA040201F480530BB182F493
:103D0000805201F400530BB182F4005242F400439C
:103D100043F08003024D05EB8004C4F8003C30BD45
:103D20000050004010B50B4B03EB8002D2F8002C82
:103D30004BF68F7302EA030181F4805181F4005144
:103D400041F4004242F08002024C04EB8003C3F8CD
:103D5000002C10BD0050004010B54A105200044B1A
:103D60001B689BB203EBC003024C44F8132010BD48
:103D7000505C004000600040044A126892B202EBBE
:103D8000C002921C024B43F812107047505C004076
:103D90000060004030B50E4C04EB8003D3F8003CCB
:103DA00048F6BF7403EA040201F010030BB182F07D
:103DB000100201F020030BB182F0200242F4004314
:103DC00043F08003024D05EB8004C4F8003C30BD95
:103DD0000050004010B50B4B03EB8002D2F8002CD2
:103DE00048F6BF7302EA030181F0100181F020015F
:103DF00041F4004242F08002024C04EB8003C3F81D
:103E0000002C10BD0050004010B5074B03EB8002A2
:103E1000D2F8002C48F68F131A400A43024C04EBE8
:103E20008003C3F8002C10BD0050004010B500F016
:103E300001F810BD0CB500200190009033480068D7
:103E400040F480303149086000BF3048006800F419
:103E5000003000900198401C0190009818B901981A
:103E6000B0F5A06FF1D12948006800F4003010B11E
:103E70000120009001E0002000900098012843D12B
:103E80002348006840F01000214908600846006897
:103E900020F0030008600846006840F00200086057
:103EA0001A48406819494860084640684860084612
:103EB000406840F4806048600846406820F47C1008
:103EC00048600846406840F4E810486008460068CA
:103ED00040F08070086000BF0C48006800F000707F
:103EE0000028F9D00948406820F0030007494860DD
:103EF0000846406840F00200486000BF0348406840
:103F000000F00C000828F9D10CBD000000100240A0
:103F10000020024010B5FFF7CBF94FF48030FFF7D7
:103F200089FAFFF7EBFA1B49087008460078012868
:103F300027D11020FEF7D4FA0220FEF7FFFA002066
:103F4000FFF76CFA0020FFF7A7FA4FF48060FFF745
:103F500097FA4FF4E0114FF48030FFF7AFFA0120E9
:103F6000FFF7A6FA00BF3920FFF732FA0028FAD08F
:103F70000220FFF7B1FA00BFFFF748FA0828FBD18B
:103F800001E000BFFEE701210807FFF771F9FEF726
:103F900001FB10BD2600002010B50020FFF7A8FA95
:103FA0000121C805FFF764F910BD000038B50124F0
:103FB0002948006880B2001D284931F8100080B2FD
:103FC00001EB4000009026480068007A092832D0B2
:103FD000009800782249096808700098401C0090F9
:103FE000009800781E49096848700098401C0090AD
:103FF000009800EB44000090009931F8020B00910A
:10400000FDF7AEFC164909684880009800EB4400B3
:104010000090009931F8020B0091FDF7A1FC1049C6
:1040200009688880009800EB4400009000980088A0
:104030000B490968C88001200949096808720848C5
:104040000068C08810B9FEF7D7FD01E0FEF75CF804
:10405000FFF78EF838BD0000505C00400060004063
:10406000240100202DE9F04754480068007800F052
:104070007F08B8F1000F0AD150480068407A00F07C
:10408000DF004E49096848720020BDE8F087B8F1AA
:10409000020F7CD149480068408818B94748006839
:1040A000007908B10220F0E7DFF814914348006876
:1040B000477927F080052C4640480068407900F099
:1040C000800038B13F4901EB8400D0F8000C00F0CB
:1040D000300606E03B4901EB8400D0F8000C00F408
:1040E000405699F80000A84204D91EB13348006830
:1040F000807A08B90220C8E707F0800080B1314912
:1041000001EB8400D0F8000C00F0300010284BD1F7
:10411000E0B2FDF7CDFDE0B23021FFF73BFE43E01A
:10412000284901EB8400D0F8000C00F44050B0F5B1
:10413000805F39D1E4B9244A92F82C10E0B2FFF73D
:10414000ABFD204A02EB8401D1F8001C4BF68F72C4
:1041500001EA020080F4805080F4005040F40041F5
:1041600041F08001174B03EB8402C2F8001C1BE0F6
:10417000E0B2FDF783FD134A02EB8401D1F8001C85
:104180004BF68F7201EA020080F4805000E011E0EB
:1041900080F4005040F4004141F08001094B03EBF2
:1041A0008402C2F8001C00BF0849096848698047BA
:1041B00000206AE700BF022067E70000240100201A
:1041C00084000020005000408800002030010020C2
:1041D00010B504462CB90120064909680882002060
:1041E00010BD0549096808688047024800680A3020
:1041F000F6E70000240100203001002010B502463F
:1042000006480068438A32B98888C01A034C24687B
:104210002082002010BD08681844FBE7240100201C
:1042200010B504462CB9012006490968088200200F
:1042300010BD0549096888688047024800680C304D
:10424000F6E70000240100203001002010B50446EC
:104250002CB90220394909680882002010BD0020CD
:104260003749088035480068007800F07F0018BBA7
:1042700032490968487A00F0200131B130490978A3
:1042800041F002012E4A117005E02D49097801F034
:10429000FD012B4A117000F0400131B12849097825
:1042A00041F00101264A117005E02549097801F025
:1042B000FE01234A11703AE020480068007800F0BF
:1042C0007F00012801D11E48C8E71C48006800781B
:1042D00000F07F00022828D1184A1268517901F0B5
:1042E0000F0001F080027AB1164B03EB8002D2F886
:1042F000002C02F03002102A16D1114A127842F036
:1043000001020F4B1A700FE00E4B03EB8002D2F844
:10431000002C02F44052B2F5805F05D1084A1278B1
:1043200042F00102064B1A7001E0002096E70649B0
:10433000096808698047024890E7000024010020CE
:104340001C010020005000403001002010B50E4834
:104350000068C0780D494978884213DC0A48006833
:10436000807878B908480068808858B9064800689D
:10437000C078054909688872054909684868804716
:10438000002010BD0220FCE7240100208400002052
:104390003001002010B507480068407A40F0200046
:1043A00004490968487204490968C86980470020BF
:1043B00010BD000024010020300100202DE9F04153
:1043C0002E480068467926F080073C462B48006856
:1043D000407900F0800038B1294901EB8400D0F821
:1043E000000C00F0300506E0254901EB8400D0F810
:1043F000000C00F4405523480078A04208D91F481B
:104400000068408820B91DB11C480068807A10B946
:104410000220BDE8F08106F08000A0B1184A02EB4E
:104420008401D1F8001C48F6BF7201EA020080F056
:10443000100040F4004141F08001114B03EB840275
:10444000C2F8001C14E00E4A02EB8401D1F8001CF3
:104450004BF68F7201EA020080F4805040F4004174
:1044600041F08001064B03EB8402C2F8001C00BF40
:1044700005490968886980470020CAE724010020AF
:1044800000500040840000203001002010B5174B80
:104490001B68D978154B1B685879154B1B689A69AE
:1044A0009047044611480068807AE8B13CB90F484B
:1044B0000068007918B90D480068807808B10220BA
:1044C00010BD8CB90B490968C86880470748006867
:1044D000407906490968C87204480068C0780349F1
:1044E000096808730020EBE70220E9E724010020B7
:1044F000280100203001002010B50848006884B26F
:1045000044F0080405480460006884B244F00404E0
:1045100002480460FDF774FF10BD0000405C0040DD
:1045200010B51348006840F00100114908600846C2
:104530004068104908400E494860084600680E4926
:1045400008400B4908600846006820F48020086095
:104550000846406820F4FE0048604FF41F00886061
:10456000FFF764FC4FF000600449086010BD0000D4
:10457000001002400000FFF8FFFFF6FE08ED00E02B
:1045800010B501210C4800F02CF898B101210A481F
:1045900000F018F809480078401C084908700846DF
:1045A0000078142806D10020087005480068401CD7
:1045B0000349086010BD0000000400400400002012
:1045C00008000020CA430282704721B1028842F0ED
:1045D0000102028004E002884FF6FE731A40028056
:1045E000704730B50246002000230024158A05EAF2
:1045F0000103958905EA010413B10CB1012000E023
:10460000002030BD1AB183890B43838102E0838986
:104610008B43838170470000002202881D4B984223
:104620000ED01D4B98420BD0B0F1804F08D01B4BE1
:10463000984205D01A4B984202D01A4B984204D1A6
:104640004FF68F731A404B881A43174B984207D086
:10465000164B984204D04FF6FF431A40CB881A43BA
:1046600002808B8883850B8803850A4B98420BD088
:10467000094B984208D00E4B984205D00D4B9842FA
:1046800002D00D4B984201D10B7A0386012383821D
:1046900070470000002C014000340140000400403D
:1046A00000080040000C00400010004000140040D2
:1046B00000400140004401400048014008B501208D
:1046C000009053484078AC2838D006DC1D281ED016
:1046D0005A2807D08A2875D14CE0AD285ED0AE2884
:1046E000F9D170E06946012000F01CFC49490870CE
:1046F0004748007B4849487045488089000A08704F
:1047000043498989881C444900F040FC7EE06946A1
:10471000012000F007FC3E4A918990683E4A921CB5
:10472000FFF73EF901203C490870002048703849E5
:104730008989881C384900F029FC67E06946012016
:1047400000F0F0FBAC2034490870082048708870F5
:104750000720C87006200871052048710420887160
:104760000320C87102200872012048720A2000F05C
:104770000DFC4BE06946012000F0D4FB8A2026495D
:10478000087008204870881C24490A68026049683B
:104790004160811E0A2000F0F9FB37E069460120E4
:1047A00000F0C0FBAD201C490870A52048708A1C91
:1047B00010214FF4FE20FFF7F3F81749122000F004
:1047C000E5FB23E01BE06946012000F0ABFBAE20D7
:1047D00011490870102048700A2088700720C8709E
:1047E000052008714871002088710120C8710020DF
:1047F00088710120C871122000F0C8FB06E030204B
:1048000000906946012000F08DFB00BF00BF08BD8D
:104810005C01002000000020F2010020FA52000894
:104820003EB50220019042484478F02C4CD004DC84
:104830001D2C07D02E2C77D120E0F12C4FD0FF2C4F
:1048400072D163E001A9012000F06CFB384988892E
:104850003849FEF7B7FE384908703549354A886847
:104860004FF48071FFF7E3F801203249891E087088
:1048700000204870022000F055FB56E00020029016
:104880002B488068802807D3294A91689068FFF7F1
:1048900047F80120029012E0254840884AF29851DA
:1048A00088420CD12248808849F6A501884206D169
:1048B0001F4A91689068FFF733F80120029002A91F
:1048C000012000F02FFB30E0194A11799078FDF7B4
:1048D00098FD00906946012000F024FB25E001A925
:1048E000012000F01FFB124988891449FEF76AFE77
:1048F000114908700E4B9A681979987800F0F0FA0F
:1049000000906946012000F00DFB0EE04FF47A7034
:1049100000F0CAFB4FF47A7000F0C6FB4FF47A70D7
:1049200000F0C2FB01E0FFE700BF00BF3EBD00009A
:104930005C010020F4010020000000202C08002071
:104940007FB505460C4601210220FEF791FCADF82B
:104950000850ADF804400020ADF80A00ADF806009C
:1049600001A90E48FFF758FE012211460B48FFF738
:1049700049FE1D208DF8000000208DF80100032065
:104980008DF8020001208DF803006846FEF7F2F86A
:1049900001210248FFF719FE7FBD0000000400401E
:1049A00010B540F22551104800F082F8D0B10E4801
:1049B00000F03AF9C1B20D4802880088401C0B4B48
:1049C00018800B48815419460888C11700EBD15153
:1049D0004912A0EB41211A46118006480088401C6C
:1049E0000449088010BD0000003801401E0000206E
:1049F0002C0600201A00002010B586B004460121C4
:104A000044F20500FEF744FC4FF40070ADF81400CA
:104A100003208DF8160018208DF8170005A91C48F2
:104A2000FDF7D2FD4FF48060ADF8140004208DF83E
:104A3000170005A91648FDF7C7FD01940020ADF841
:104A40000800ADF80A00ADF80C00ADF810000C201D
:104A5000ADF80E0001A90F4800F07AF825208DF876
:104A6000000003208DF801008DF8020001208DF870
:104A700003006846FEF77EF8012240F22551054802
:104A800000F040F80121034800F006F806B010BD20
:104A9000000801400038014021B1828942F40052EF
:104AA000828104E082894DF6FF731A40828170474B
:104AB00070B50246002400230025002040F66A1647
:104AC000B14200D100BFC1F3421501F01F0301261E
:104AD00006FA03F3012D02D19689334006E0022D38
:104AE00002D1168A334001E0968A33400C12012627
:104AF00006FA04F41688344013B10CB1012000E02A
:104B0000002070BDF0B503460024002600250020DB
:104B100040F66A17B94200D100BF1846C1F34214EB
:104B200001F01F06012707FA06F5012C01D10C3010
:104B300004E0022C01D1103000E014301AB10768F3
:104B40002F43076002E00768AF430760F0BD000035
:104B50002DE9F04786B005460E460024A24600BF68
:104B6000A1460027B08900B100BF2F462C8A4CF621
:104B7000FF700440F08804432C82AC894EF6F31099
:104B80000440B08831890843718908430443AC81EB
:104B9000AC8A4FF6FF400440B0890443AC8201A8C0
:104BA000FEF7ACFB1F48874202D1DDF810A001E000
:104BB000DDF80CA0A88900F4004040B10AEBCA005F
:104BC00000EB0A1031684900B0FBF1F807E00AEB8E
:104BD000CA0000EB0A1031688900B0FBF1F86420CC
:104BE000B8FBF0F004012009642101FB1089A889B9
:104BF00000F4004040B1322000EBC900B0FBF1F0FE
:104C000000F00700044308E0322000EB09106421A3
:104C1000B0FBF1F000F00F0004432C8106B0BDE8BA
:104C2000F08700000038014001468888C0F3080082
:104C3000704710B54FF48020FDF7DCFB10BD00007D
:104C400010B5044624B110210448FDF74AFD03E0E5
:104C500010210248FDF743FD10BD0000000C01408B
:104C600010B508480849086002200968087207481A
:104C70000749086007480849086005490968086845
:104C8000804710BD2C0C002024010020880000204B
:104C900028010020B80000203001002008B54FF4A2
:104CA0004070FDF79FFF14208DF8000001208DF863
:104CB000010000208DF8020001208DF803006846F5
:104CC000FDF758FF08BD000010B5374800683749A8
:104CD00008800846008800F40040354909880840EB
:104CE00008B1FCF743FE3148008800F48060304989
:104CF0000988084030B14FF6FF302B4908602D4934
:104D0000486880472948008800F4005028490988ED
:104D1000084018B14DF6FF70234908602348008809
:104D200000F4805022490988084030B14EF6FF70E7
:104D30001D4908600020FEF7DBFC1C48008800F4D9
:104D400000601B490988084060B11B48007810B119
:104D5000FFF7D2FB02E00220FEF7CAFC4FF2FF7021
:104D6000114908601148008800F400701049098852
:104D7000084040B14FF6FF500B4908600F480078DB
:104D8000401C0E4908700948008800F480700849EA
:104D90000988084030B14FF6FF60034908600720DA
:104DA000FEF7A6FC10BD0000445C0040440000205B
:104DB0002E0100208800002018010020460000205D
:104DC00010B5FFF781FF10BD0020064908604FF4C1
:104DD0003F4005490880084600880249091F0860CD
:104DE00000207047445C00402E0100202DE9F04176
:104DF00004460E46002504F07F00FDF785FC0546BD
:104E000004F07F00FDF770FC07462A46394630461D
:104E1000FDF7B6FF2846BDE8F0812DE9F0410546D3
:104E20000E46144605F07F00FDF780FC0746A2B24F
:104E30003946304600F018F8A1B205F07F00FEF7C1
:104E40009BFF2046BDE8F08102E002A0FBF746FA96
:104E5000FBE7000055736167654661756C745F48D8
:104E6000616E646C65720A00F0B5144604F1010CC1
:104E70004FEA6C07DFF824C00CEB41033D460AE023
:104E80000678401C90F800C046EA0C2223F8022B5A
:104E90009B1C401C6D1E002DF2D1F0BD0060004037
:104EA0000020014908607047082C004010B57F20A1
:104EB00000F00EF8FFF7F4FF0448006808B901207D
:104EC00000E000200149086010BD0000B40122424A
:104ED00000F07F01014A116070470000002C004083
:104EE00070B505460E461446B4F1006F02D30B4868
:104EF000844201D3022070BDFDF72CFB4FF40072F9
:104F000007492046FEF739FE18B1FDF7DFFA012008
:104F1000F1E7FDF7DBFA0020EDE7000000000208F2
:104F20002C0800202DE9F04105460E46002427E01C
:104F30002F1B102F06D3311910220120FFF76DFF10
:104F4000074605E031193A460120FFF766FF07469C
:104F50000120FEF73FFF08E008F101084EF660204F
:104F6000804502D90120BDE8F0810748407800283B
:104F7000F2D00020044948703C44AC4200D300E029
:104F8000D6E700BF0020EEE76C0100202DE9F041DC
:104F900005460E464FF00008002429E02F1B402F45
:104FA00006D3311940220220FFF737FF074605E0FC
:104FB00031193A460220FFF730FF07460220FEF77C
:104FC00009FF08E008F101084EF66020804502D98B
:104FD0000120BDE8F081084840780028F2D04FF069
:104FE00000080020044948703C44AC4200D300E073
:104FF000D4E700BF0020ECE7AF01002070B5044605
:105000000D460020074908607E2000EA440630462D
:10501000FEF750FC2846FEF74DFC01200249C1F87E
:10502000940170BD9481214200802142490050EAE0
:10503000C12018BF04204A0D18BF40F0010040F203
:10504000FF72B2EB515F08BF40F00200012808BFB9
:105050000520704730380A2801D20120704700200F
:105060007047014600BF70474FF0E021096921F009
:1050700004014FF0E0221161C21700EB5272C2F33B
:10508000C702074B1A701946097801EB4102C2EBBF
:10509000C1114FF6FF7202EAC101024A1180704746
:1050A000220000202400002001460D4A12884A43B5
:1050B0004FF0E0235A6100229A6101221A6100BF79
:1050C0004FF0E022106900F001021AB100F48032C2
:1050D000002AF5D000224FF0E0231A619A61704750
:1050E00024000020002103E000BF00BF00BF491CD6
:1050F0008142F9D37047000001460D4A12784A43B5
:105100004FF0E0235A6100229A6101221A6100BF28
:105110004FF0E022106900F001021AB100F4803271
:10512000002AF5D000224FF0E0231A619A617047FF
:105130002200002000BF054A128802F04002002A27
:10514000F9D0C2B2014B1B1D1A80704700380140D4
:105150008AB000200990049005900690079048209E
:10516000FFF782FF0120FDF779FB4FF4E130FFF7F5
:1051700043FCFDF7A1FCFEF73FF8FEF76FF8FDF7E3
:10518000E1FBFDF783FB41F61F413120FFF7D8FB20
:10519000FEF7C0FEFFF782FDFEF7FEFEFFF760FDA3
:1051A000002403E004A90C55601C84B2102CF9DB28
:1051B0000020049005900690079056E008A8FEF79E
:1051C000B9F92A4A04A90220FEF744FA09903220CC
:1051D000FFF792FF26A202210020089BFDF7DEFBCD
:1051E0002346611C8CB224A203210020FDF7D6FBCC
:1051F00000200890049005900690079021480068D0
:1052000008B9012000E000201E4908604FF4FA7040
:10521000FFF74AFFFF201C4908701020FEF7BEF977
:105220001A49087008460078F8B91948164D2ECD6D
:105230002EC0103881898068154A9288CDE90020F7
:10524000029113484388427801781248FBF746F8E8
:105250000F48007810B1022806D102E0FFF72EFABD
:1052600002E0FFF7DDFA00BF00BFA7E7F452000835
:1052700069643D2530385800636F756E743D256450
:1052800000000000B40122424C0100200000002078
:105290005C010020A056000810B500290AD008784B
:1052A000002807D005487844FBF74EFF002801D0BE
:1052B000002010BD0248784410BD00006E040000BC
:1052C0006604000010B500290AD00878002807D02D
:1052D00005487844FBF738FF002801D0002010BDB6
:1052E0000248784410BD00005E040000560400002F
:1052F000FBF7B6BCFFFFFFFFFFFF918888981505FD
:10530000051500C1B150A80B5E9ADEE5785DFE7B05
:1053100056660000000000000000002F00000000A2
:105320000700070000147F147F1400242A7F2A122C
:10533000006264081323003649552250000005031B
:10534000000000001C224100000041221C0000144B
:10535000083E08140008083E0808000000A060008D
:10536000000808080808000060600000002010081D
:105370000402003E5149453E0000427F4000004289
:1053800061514946002141454B31001814127F10EC
:10539000002745454539003C4A494930000171091B
:1053A000050300364949493600064949291E0000CF
:1053B0003636000000005636000000081422410076
:1053C00000141414141400004122140800020151A6
:1053D000090600324959513E007C1211127C007FAF
:1053E00049494936003E41414122007F4141221C4A
:1053F000007F49494941007F09090901003E4149AF
:10540000497A007F0808087F0000417F41000020A2
:1054100040413F01007F08142241007F404040404E
:10542000007F020C027F007F0408107F003E414194
:10543000413E007F09090906003E4151215E007F7F
:10544000091929460046494949310001017F0101F6
:10545000003F4040403F001F2040201F003F403899
:10546000403F0063140814630007087008070061D8
:105470005149454300007F41410000552A552A55B6
:10548000000041417F00000402010204004040404E
:105490004040000001020400002054545478007F72
:1054A0004844443800384444442000384444487F49
:1054B00000385454541800087E0901020018A4A4AE
:1054C000A47C007F080404780000447D4000004074
:1054D00080847D00007F102844000000417F400050
:1054E000007C04180478007C0804047800384444E4
:1054F000443800FC242424180018242418FC007CC0
:105500000804040800485454542000043F44402038
:10551000003C4040207C001C2040201C003C4030CF
:10552000403C004428102844001CA0A0A07C00445B
:1055300064544C44141414141414FFFFFFFFFFFFB1
:1055400012010001DC00004071047823000100001A
:10555000000109022E00010100603209040000046C
:10556000DCA0B0000705810310000107050103104E
:1055700000010705820240000A0705020240000AF6
:10558000040309042603530054004D00690063001E
:1055900072006F0065006C006500630074007200AB
:1055A0006F006E0069006300730020035300540015
:1055B0004D0033003200200043007500730074007A
:1055C0006D0020004800490044003031323334354A
:1055D000363738394142434445464030580030312F
:1055E000323334353637383961626364656640304A
:1055F0007800040000080000000000000002000124
:105600000000100000000000000000000240000048
:10561000000000A00000000005400000000000C8DD
:10562000000000000C4000000000409C0000000052
:10563000194000000020BCBE000000003440000003
:10564000BFC91B8E00000004B5400000504BCFD0F6
:105650006607E2CF010000006C4100003E8251AAC3
:10566000DFEEA73401000000D9420000DCB5A0E263
:105670003A301F97FFFFFFFFB4450000FD25A0C88B
:10568000E9A3C14FFFFFFFFFFF3F000000000080C4
:1056900000000000FF3F000000000080000000004C
:1056A00072775F636F6E203D20253032580A636D3C
:1056B00064203D20253032580A616464725F746151
:1056C00072203D20253034580A616464725F737221
:1056D00063203D20253034580A6F66667365742058
:1056E0003D20253038580A206C656E203D2025303D
:1056F00034580A0040580008000000204C01000007
:1057000028010008D05800084C0100205C1100005E
:10571000840100081C00000043000000F8FFFFFFA8
:105720000C0000000E0000000F0000002E00000022
:105730001001000043000000F8FFFFFF0040404060
:105740004040404040404141414141404040404054
:105750004040404040404040404040404005020200
:1057600002020202020202020202020202202020BF
:10577000202020202020200202020202020290901B
:105780009090909010101010101010101010101019
:10579000101010101010101002020202020288886D
:1057A0008888888808080808080808080808080879
:1057B0000808080808080808020202024000000061
:1057C00000000000000000000000000000000000D9
:1057D00000000000000000000000000000000000C9
:1057E00000000000000000000000000000000000B9
:1057F00000000000000000000000000000000000A9
:105800000000000000000000000000000000000098
:105810000000000000000000000000000000000088
:105820000000000000000000000000000000000078
:105830000000000000000000000000000000000068
:105840000127141A03531254124D12330216321345
:10585000A5231B08D1040B10712B041AB1180A15CB
:10586000DD1C4123040113651F1408191E1B086168
:10587000081A6304130D1D1B08F5041ADD041A85AC
:10588000041A71041AB504413240293C1A2528092A
:10589000125429041A3D1C1340553308121A520899
:1058A000322E1A640832091A800832041A84083227
:1058B000261AAA083220222773201A199301212DB3
:1058C000010203040400090006070809020406088F
:04000005080000ED02
:00000001FF
